S01D00004D656C6F64794D656E7565745F417474696E7931302E73726563F6
S11300000AC019C018C017C016C0E3C014C013C07A
S113001012C011C010C011271FBFCFE5D0E0DEBF52
S1130020CDBF20E0A0E4B0E001C01D93A134B2072D
S1130030E1F753D0E0C0E4CFCF93DF931F93CDB764
S1130040DEB78250910BA1F0880F991F8150910B5C
S1130050CF5FDF4F9883C150D040CF5FDF4F4881DF
S1130060882309F44A958A958823E9F74423D1F72C
S11300700F91DF91CF9108952F933F93CF93DF9307
S113008000D0CDB7DEB7282F392FCE5FDF4F1883CE
S11300901A93C150D040CF5FDF4F49915881C2506D
S11300A0D0404217530790F486EC93E0C5DFCF5F4E
S11300B0DF4F49915881C250D0404F5F5F4FCE5FB0
S11300C0DF4F58834A93C150D040E5CF0F910F9131
S11300D0DF91CF913F912F9108952F933F93CF9329
S11300E0DF9348ED4CBF17BF4CBF16BF4AB7417FE3
S11300F044604ABF789440E050E0242F352F2E5FAF
S11301003F4F22383107E9F0E42FF52FE650FE4B3C
S1130110C191D081E42FF52FE658FD4B6191708198
S113012082E030D08C2F9D2FA7DF82E018D08C2F57
S11301309D2F96958795969587959EDF422F532FF1
S1130140DCCF4AB741604ABF88954AB74E7F4ABF61
S113015080E090E0DF91CF913F912F9108954BB5CE
S11301604D7F4BBD92B141E050E060E070E004C0CF
S1130170440F551F661F771F8A95D2F74095492370
S113018042B90895E62FF72F91B141E050E060E0C5
S113019070E0082F04C0440F551F661F771F0A958F
S11301A0D2F7492B41B9E117F10709F4D8CFE1504F
S11301B0F10B41E050E001C0440F8A95EAF740A9F1
S11301C01EBD49E04DBDF7BDE6BD4BB542604BBD1C
S11301D008951F930F930FB70F9310E04F935F93FE
S11301E050A142B1452742B95F914F910F910FBF82
S10D01F00F911F911895F894FFCFAA
S11301FA00018000800080008000000100010001ED
S113020A00018000800080008000000100010001DC
S113021A00018000800080008000000180008000CE
S113022A80008000000180008000800080000003BC
S113023A00018000800080008000000100010001AC
S113024A000180008000800080000001000100019C
S113025A000180008000800080000001800080008E
S113026A8000800000018000800080008000000679
S113027A9E1ADC278223A11FE01D9E1ADC27DC2795
S113028AB517E01D9E1AB5171D15EE13DC27DC27DA
S113029AE01D9E1AE01DA11F8223A11FE01DA11FBC
S11302AA8223DC273A2ADC278223A11FDC27822324
S11302BA9E1ADC278223A11FE01D9E1ADC27DC2755
S11302CAB517E01D9E1AB5171D15EE13DC27DC279A
S11302DAE01D9E1AE01DA11F8223A11FE01DA11F7C
S11302EA8223DC278223A11F8223DC273A2ADC27E4
S9030000FC
